{
    "_format": "hh-sol-artifact-1",
    "contractName": "MugStars",
    "sourceName": "contracts/MugStars.sol",
    "abi": [
        {
            "inputs": [
                {
                    "internalType": "string",
                    "name": "name",
                    "type": "string"
                },
                {
                    "internalType": "string",
                    "name": "symbol",
                    "type": "string"
                },
                {
                    "internalType": "address[]",
                    "name": "treasuryWallets",
                    "type": "address[]"
                },
                {
                    "internalType": "uint256[]",
                    "name": "treasuryShares",
                    "type": "uint256[]"
                }
            ],
            "stateMutability": "nonpayable",
            "type": "constructor"
        },
        {
            "anonymous": false,
            "inputs": [
                {
                    "indexed": true,
                    "internalType": "address",
                    "name": "owner",
                    "type": "address"
                },
                {
                    "indexed": true,
                    "internalType": "address",
                    "name": "approved",
                    "type": "address"
                },
                {
                    "indexed": true,
                    "internalType": "uint256",
                    "name": "tokenId",
                    "type": "uint256"
                }
            ],
            "name": "Approval",
            "type": "event"
        },
        {
            "anonymous": false,
            "inputs": [
                {
                    "indexed": true,
                    "internalType": "address",
                    "name": "owner",
                    "type": "address"
                },
                {
                    "indexed": true,
                    "internalType": "address",
                    "name": "operator",
                    "type": "address"
                },
                {
                    "indexed": false,
                    "internalType": "bool",
                    "name": "approved",
                    "type": "bool"
                }
            ],
            "name": "ApprovalForAll",
            "type": "event"
        },
        {
            "anonymous": false,
            "inputs": [
                {
                    "indexed": true,
                    "internalType": "contract IERC20",
                    "name": "token",
                    "type": "address"
                },
                {
                    "indexed": false,
                    "internalType": "address",
                    "name": "to",
                    "type": "address"
                },
                {
                    "indexed": false,
                    "internalType": "uint256",
                    "name": "amount",
                    "type": "uint256"
                }
            ],
            "name": "ERC20PaymentReleased",
            "type": "event"
        },
        {
            "anonymous": false,
            "inputs": [
                {
                    "indexed": true,
                    "internalType": "address",
                    "name": "previousOwner",
                    "type": "address"
                },
                {
                    "indexed": true,
                    "internalType": "address",
                    "name": "newOwner",
                    "type": "address"
                }
            ],
            "name": "OwnershipTransferred",
            "type": "event"
        },
        {
            "anonymous": false,
            "inputs": [
                {
                    "indexed": false,
                    "internalType": "address",
                    "name": "account",
                    "type": "address"
                },
                {
                    "indexed": false,
                    "internalType": "uint256",
                    "name": "shares",
                    "type": "uint256"
                }
            ],
            "name": "PayeeAdded",
            "type": "event"
        },
        {
            "anonymous": false,
            "inputs": [
                {
                    "indexed": false,
                    "internalType": "address",
                    "name": "from",
                    "type": "address"
                },
                {
                    "indexed": false,
                    "internalType": "uint256",
                    "name": "amount",
                    "type": "uint256"
                }
            ],
            "name": "PaymentReceived",
            "type": "event"
        },
        {
            "anonymous": false,
            "inputs": [
                {
                    "indexed": false,
                    "internalType": "address",
                    "name": "to",
                    "type": "address"
                },
                {
                    "indexed": false,
                    "internalType": "uint256",
                    "name": "amount",
                    "type": "uint256"
                }
            ],
            "name": "PaymentReleased",
            "type": "event"
        },
        {
            "anonymous": false,
            "inputs": [
                {
                    "indexed": true,
                    "internalType": "address",
                    "name": "from",
                    "type": "address"
                },
                {
                    "indexed": true,
                    "internalType": "address",
                    "name": "to",
                    "type": "address"
                },
                {
                    "indexed": true,
                    "internalType": "uint256",
                    "name": "tokenId",
                    "type": "uint256"
                }
            ],
            "name": "Transfer",
            "type": "event"
        },
        {
            "inputs": [],
            "name": "MAX_Tokens",
            "outputs": [
                {
                    "internalType": "uint256",
                    "name": "",
                    "type": "uint256"
                }
            ],
            "stateMutability": "view",
            "type": "function"
        },
        {
            "inputs": [],
            "name": "Price",
            "outputs": [
                {
                    "internalType": "uint256",
                    "name": "",
                    "type": "uint256"
                }
            ],
            "stateMutability": "view",
            "type": "function"
        },
        {
            "inputs": [
                {
                    "internalType": "address",
                    "name": "presaleAddress",
                    "type": "address"
                },
                {
                    "internalType": "uint256",
                    "name": "numPresaleNFT",
                    "type": "uint256"
                }
            ],
            "name": "addPresaleAddress",
            "outputs": [],
            "stateMutability": "nonpayable",
            "type": "function"
        },
        {
            "inputs": [
                {
                    "internalType": "address[]",
                    "name": "newPresaleAddresses",
                    "type": "address[]"
                },
                {
                    "internalType": "uint256",
                    "name": "voucherAmount",
                    "type": "uint256"
                }
            ],
            "name": "addPresaleAddresses",
            "outputs": [],
            "stateMutability": "nonpayable",
            "type": "function"
        },
        {
            "inputs": [
                {
                    "internalType": "address",
                    "name": "to",
                    "type": "address"
                },
                {
                    "internalType": "uint256",
                    "name": "tokenId",
                    "type": "uint256"
                }
            ],
            "name": "approve",
            "outputs": [],
            "stateMutability": "nonpayable",
            "type": "function"
        },
        {
            "inputs": [
                {
                    "internalType": "address",
                    "name": "owner",
                    "type": "address"
                }
            ],
            "name": "balanceOf",
            "outputs": [
                {
                    "internalType": "uint256",
                    "name": "",
                    "type": "uint256"
                }
            ],
            "stateMutability": "view",
            "type": "function"
        },
        {
            "inputs": [
                {
                    "internalType": "uint256",
                    "name": "tokenId",
                    "type": "uint256"
                }
            ],
            "name": "getApproved",
            "outputs": [
                {
                    "internalType": "address",
                    "name": "",
                    "type": "address"
                }
            ],
            "stateMutability": "view",
            "type": "function"
        },
        {
            "inputs": [
                {
                    "internalType": "address",
                    "name": "owner",
                    "type": "address"
                },
                {
                    "internalType": "address",
                    "name": "operator",
                    "type": "address"
                }
            ],
            "name": "isApprovedForAll",
            "outputs": [
                {
                    "internalType": "bool",
                    "name": "",
                    "type": "bool"
                }
            ],
            "stateMutability": "view",
            "type": "function"
        },
        {
            "inputs": [],
            "name": "maxPurchase",
            "outputs": [
                {
                    "internalType": "uint256",
                    "name": "",
                    "type": "uint256"
                }
            ],
            "stateMutability": "view",
            "type": "function"
        },
        {
            "inputs": [
                {
                    "internalType": "uint256",
                    "name": "numberOfTokens",
                    "type": "uint256"
                }
            ],
            "name": "mintNFT",
            "outputs": [],
            "stateMutability": "payable",
            "type": "function"
        },
        {
            "inputs": [],
            "name": "name",
            "outputs": [
                {
                    "internalType": "string",
                    "name": "",
                    "type": "string"
                }
            ],
            "stateMutability": "view",
            "type": "function"
        },
        {
            "inputs": [],
            "name": "owner",
            "outputs": [
                {
                    "internalType": "address",
                    "name": "",
                    "type": "address"
                }
            ],
            "stateMutability": "view",
            "type": "function"
        },
        {
            "inputs": [
                {
                    "internalType": "uint256",
                    "name": "tokenId",
                    "type": "uint256"
                }
            ],
            "name": "ownerOf",
            "outputs": [
                {
                    "internalType": "address",
                    "name": "",
                    "type": "address"
                }
            ],
            "stateMutability": "view",
            "type": "function"
        },
        {
            "inputs": [
                {
                    "internalType": "uint256",
                    "name": "index",
                    "type": "uint256"
                }
            ],
            "name": "payee",
            "outputs": [
                {
                    "internalType": "address",
                    "name": "",
                    "type": "address"
                }
            ],
            "stateMutability": "view",
            "type": "function"
        },
        {
            "inputs": [
                {
                    "internalType": "address",
                    "name": "",
                    "type": "address"
                }
            ],
            "name": "presaleVouchers",
            "outputs": [
                {
                    "internalType": "uint256",
                    "name": "",
                    "type": "uint256"
                }
            ],
            "stateMutability": "view",
            "type": "function"
        },
        {
            "inputs": [
                {
                    "internalType": "address payable",
                    "name": "account",
                    "type": "address"
                }
            ],
            "name": "release",
            "outputs": [],
            "stateMutability": "nonpayable",
            "type": "function"
        },
        {
            "inputs": [
                {
                    "internalType": "contract IERC20",
                    "name": "token",
                    "type": "address"
                },
                {
                    "internalType": "address",
                    "name": "account",
                    "type": "address"
                }
            ],
            "name": "release",
            "outputs": [],
            "stateMutability": "nonpayable",
            "type": "function"
        },
        {
            "inputs": [
                {
                    "internalType": "contract IERC20",
                    "name": "token",
                    "type": "address"
                },
                {
                    "internalType": "address",
                    "name": "account",
                    "type": "address"
                }
            ],
            "name": "released",
            "outputs": [
                {
                    "internalType": "uint256",
                    "name": "",
                    "type": "uint256"
                }
            ],
            "stateMutability": "view",
            "type": "function"
        },
        {
            "inputs": [
                {
                    "internalType": "address",
                    "name": "account",
                    "type": "address"
                }
            ],
            "name": "released",
            "outputs": [
                {
                    "internalType": "uint256",
                    "name": "",
                    "type": "uint256"
                }
            ],
            "stateMutability": "view",
            "type": "function"
        },
        {
            "inputs": [
                {
                    "internalType": "address",
                    "name": "addressToDelete",
                    "type": "address"
                }
            ],
            "name": "removePresaleAddress",
            "outputs": [],
            "stateMutability": "nonpayable",
            "type": "function"
        },
        {
            "inputs": [],
            "name": "renounceOwnership",
            "outputs": [],
            "stateMutability": "nonpayable",
            "type": "function"
        },
        {
            "inputs": [
                {
                    "internalType": "address",
                    "name": "from",
                    "type": "address"
                },
                {
                    "internalType": "address",
                    "name": "to",
                    "type": "address"
                },
                {
                    "internalType": "uint256",
                    "name": "tokenId",
                    "type": "uint256"
                }
            ],
            "name": "safeTransferFrom",
            "outputs": [],
            "stateMutability": "nonpayable",
            "type": "function"
        },
        {
            "inputs": [
                {
                    "internalType": "address",
                    "name": "from",
                    "type": "address"
                },
                {
                    "internalType": "address",
                    "name": "to",
                    "type": "address"
                },
                {
                    "internalType": "uint256",
                    "name": "tokenId",
                    "type": "uint256"
                },
                {
                    "internalType": "bytes",
                    "name": "_data",
                    "type": "bytes"
                }
            ],
            "name": "safeTransferFrom",
            "outputs": [],
            "stateMutability": "nonpayable",
            "type": "function"
        },
        {
            "inputs": [],
            "name": "saleStatus",
            "outputs": [
                {
                    "internalType": "enum MugStars.SaleState",
                    "name": "",
                    "type": "uint8"
                }
            ],
            "stateMutability": "view",
            "type": "function"
        },
        {
            "inputs": [
                {
                    "internalType": "address",
                    "name": "operator",
                    "type": "address"
                },
                {
                    "internalType": "bool",
                    "name": "approved",
                    "type": "bool"
                }
            ],
            "name": "setApprovalForAll",
            "outputs": [],
            "stateMutability": "nonpayable",
            "type": "function"
        },
        {
            "inputs": [
                {
                    "internalType": "string",
                    "name": "newBaseURI",
                    "type": "string"
                }
            ],
            "name": "setBaseURI",
            "outputs": [],
            "stateMutability": "nonpayable",
            "type": "function"
        },
        {
            "inputs": [
                {
                    "internalType": "uint256",
                    "name": "newMaxPurchase",
                    "type": "uint256"
                }
            ],
            "name": "setMaxPurchase",
            "outputs": [],
            "stateMutability": "nonpayable",
            "type": "function"
        },
        {
            "inputs": [
                {
                    "internalType": "uint256",
                    "name": "newPrice",
                    "type": "uint256"
                }
            ],
            "name": "setPrice",
            "outputs": [],
            "stateMutability": "nonpayable",
            "type": "function"
        },
        {
            "inputs": [
                {
                    "internalType": "uint256",
                    "name": "saleStateIndex",
                    "type": "uint256"
                }
            ],
            "name": "setSaleState",
            "outputs": [],
            "stateMutability": "nonpayable",
            "type": "function"
        },
        {
            "inputs": [
                {
                    "internalType": "address",
                    "name": "account",
                    "type": "address"
                }
            ],
            "name": "shares",
            "outputs": [
                {
                    "internalType": "uint256",
                    "name": "",
                    "type": "uint256"
                }
            ],
            "stateMutability": "view",
            "type": "function"
        },
        {
            "inputs": [
                {
                    "internalType": "bytes4",
                    "name": "interfaceId",
                    "type": "bytes4"
                }
            ],
            "name": "supportsInterface",
            "outputs": [
                {
                    "internalType": "bool",
                    "name": "",
                    "type": "bool"
                }
            ],
            "stateMutability": "view",
            "type": "function"
        },
        {
            "inputs": [],
            "name": "symbol",
            "outputs": [
                {
                    "internalType": "string",
                    "name": "",
                    "type": "string"
                }
            ],
            "stateMutability": "view",
            "type": "function"
        },
        {
            "inputs": [
                {
                    "internalType": "uint256",
                    "name": "index",
                    "type": "uint256"
                }
            ],
            "name": "tokenByIndex",
            "outputs": [
                {
                    "internalType": "uint256",
                    "name": "",
                    "type": "uint256"
                }
            ],
            "stateMutability": "view",
            "type": "function"
        },
        {
            "inputs": [
                {
                    "internalType": "address",
                    "name": "owner",
                    "type": "address"
                },
                {
                    "internalType": "uint256",
                    "name": "index",
                    "type": "uint256"
                }
            ],
            "name": "tokenOfOwnerByIndex",
            "outputs": [
                {
                    "internalType": "uint256",
                    "name": "",
                    "type": "uint256"
                }
            ],
            "stateMutability": "view",
            "type": "function"
        },
        {
            "inputs": [
                {
                    "internalType": "uint256",
                    "name": "tokenId",
                    "type": "uint256"
                }
            ],
            "name": "tokenURI",
            "outputs": [
                {
                    "internalType": "string",
                    "name": "",
                    "type": "string"
                }
            ],
            "stateMutability": "view",
            "type": "function"
        },
        {
            "inputs": [
                {
                    "internalType": "contract IERC20",
                    "name": "token",
                    "type": "address"
                }
            ],
            "name": "totalReleased",
            "outputs": [
                {
                    "internalType": "uint256",
                    "name": "",
                    "type": "uint256"
                }
            ],
            "stateMutability": "view",
            "type": "function"
        },
        {
            "inputs": [],
            "name": "totalReleased",
            "outputs": [
                {
                    "internalType": "uint256",
                    "name": "",
                    "type": "uint256"
                }
            ],
            "stateMutability": "view",
            "type": "function"
        },
        {
            "inputs": [],
            "name": "totalShares",
            "outputs": [
                {
                    "internalType": "uint256",
                    "name": "",
                    "type": "uint256"
                }
            ],
            "stateMutability": "view",
            "type": "function"
        },
        {
            "inputs": [],
            "name": "totalSupply",
            "outputs": [
                {
                    "internalType": "uint256",
                    "name": "",
                    "type": "uint256"
                }
            ],
            "stateMutability": "view",
            "type": "function"
        },
        {
            "inputs": [
                {
                    "internalType": "address",
                    "name": "from",
                    "type": "address"
                },
                {
                    "internalType": "address",
                    "name": "to",
                    "type": "address"
                },
                {
                    "internalType": "uint256",
                    "name": "tokenId",
                    "type": "uint256"
                }
            ],
            "name": "transferFrom",
            "outputs": [],
            "stateMutability": "nonpayable",
            "type": "function"
        },
        {
            "inputs": [
                {
                    "internalType": "address",
                    "name": "newOwner",
                    "type": "address"
                }
            ],
            "name": "transferOwnership",
            "outputs": [],
            "stateMutability": "nonpayable",
            "type": "function"
        },
        {
            "inputs": [],
            "name": "withdrawAll",
            "outputs": [],
            "stateMutability": "nonpayable",
            "type": "function"
        },
        {
            "stateMutability": "payable",
            "type": "receive"
        }
    ],
    "bytecode": "0x608060405267011c37937e08000060135560036014556122b86015553480156200002857600080fd5b5060405162006df938038062006df983398181016040528101906200004e919062000896565b8181858581600090805190602001906200006a92919062000573565b5080600190805190602001906200008392919062000573565b505050620000a66200009a6200026b60201b60201c565b6200027360201b60201c565b8051825114620000ed576040517f08c379a0000000000000000000000000000000000000000000000000000000008152600401620000e49062000a9a565b60405180910390fd5b600082511162000134576040517f08c379a00000000000000000000000000000000000000000000000000000000081526004016200012b9062000ade565b60405180910390fd5b60005b8251811015620001eb57620001d58382815181106200017f577f4e487b7100000000000000000000000000000000000000000000000000000000600052603260045260246000fd5b6020026020010151838381518110620001c1577f4e487b7100000000000000000000000000000000000000000000000000000000600052603260045260246000fd5b60200260200101516200033960201b60201c565b8080620001e29062000d2d565b91505062000137565b505050600160128190555081601790805190602001906200020e92919062000604565b506000601960006101000a81548160ff021916908360028111156200025c577f4e487b7100000000000000000000000000000000000000000000000000000000600052602160045260246000fd5b02179055505050505062000f8c565b600033905090565b6000600a60009054906101000a900473ffffffffffffffffffffffffffffffffffffffff16905081600a60006101000a81548173ffffffffffffffffffffffffffffffffffffffff021916908373ffffffffffffffffffffffffffffffffffffffff1602179055508173ffffffffffffffffffffffffffffffffffffffff168173ffffffffffffffffffffffffffffffffffffffff167f8be0079c531659141344cd1fd0a4f28419497f9722a3daafe3b4186f6b6457e060405160405180910390a35050565b600073ffffffffffffffffffffffffffffffffffffffff168273ffffffffffffffffffffffffffffffffffffffff161415620003ac576040517f08c379a0000000000000000000000000000000000000000000000000000000008152600401620003a39062000a78565b60405180910390fd5b60008111620003f2576040517f08c379a0000000000000000000000000000000000000000000000000000000008152600401620003e99062000b00565b60405180910390fd5b6000600d60008473ffffffffffffffffffffffffffffffffffffffff1673ffffffffffffffffffffffffffffffffffffffff168152602001908152602001600020541462000477576040517f08c379a00000000000000000000000000000000000000000000000000000000081526004016200046e9062000abc565b60405180910390fd5b600f829080600181540180825580915050600190039060005260206000200160009091909190916101000a81548173ffffffffffffffffffffffffffffffffffffffff021916908373ffffffffffffffffffffffffffffffffffffffff16021790555080600d60008473ffffffffffffffffffffffffffffffffffffffff1673ffffffffffffffffffffffffffffffffffffffff1681526020019081526020016000208190555080600b546200052e919062000bf0565b600b819055507f40c340f65e17194d14ddddb073d3c9f888e3cb52b5aae0c6c7706b4fbc905fac82826040516200056792919062000a4b565b60405180910390a15050565b828054620005819062000cc1565b90600052602060002090601f016020900481019282620005a55760008555620005f1565b82601f10620005c057805160ff1916838001178555620005f1565b82800160010185558215620005f1579182015b82811115620005f0578251825591602001919060010190620005d3565b5b50905062000600919062000693565b5090565b82805482825590600052602060002090810192821562000680579160200282015b828111156200067f5782518260006101000a81548173ffffffffffffffffffffffffffffffffffffffff021916908373ffffffffffffffffffffffffffffffffffffffff1602179055509160200191906001019062000625565b5b5090506200068f919062000693565b5090565b5b80821115620006ae57600081600090555060010162000694565b5090565b6000620006c9620006c38462000b4b565b62000b22565b90508083825260208201905082856020860282011115620006e957600080fd5b60005b858110156200071d5781620007028882620007e1565b845260208401935060208301925050600181019050620006ec565b5050509392505050565b60006200073e620007388462000b7a565b62000b22565b905080838252602082019050828560208602820111156200075e57600080fd5b60005b858110156200079257816200077788826200087f565b84526020840193506020830192505060018101905062000761565b5050509392505050565b6000620007b3620007ad8462000ba9565b62000b22565b905082815260208101848484011115620007cc57600080fd5b620007d984828562000c8b565b509392505050565b600081519050620007f28162000f58565b92915050565b600082601f8301126200080a57600080fd5b81516200081c848260208601620006b2565b91505092915050565b600082601f8301126200083757600080fd5b81516200084984826020860162000727565b91505092915050565b600082601f8301126200086457600080fd5b8151620008768482602086016200079c565b91505092915050565b600081519050620008908162000f72565b92915050565b60008060008060808587031215620008ad57600080fd5b600085015167ffffffffffffffff811115620008c857600080fd5b620008d68782880162000852565b945050602085015167ffffffffffffffff811115620008f457600080fd5b620009028782880162000852565b935050604085015167ffffffffffffffff8111156200092057600080fd5b6200092e87828801620007f8565b925050606085015167ffffffffffffffff8111156200094c57600080fd5b6200095a8782880162000825565b91505092959194509250565b620009718162000c4d565b82525050565b600062000986602c8362000bdf565b9150620009938262000e19565b604082019050919050565b6000620009ad60328362000bdf565b9150620009ba8262000e68565b604082019050919050565b6000620009d4602b8362000bdf565b9150620009e18262000eb7565b604082019050919050565b6000620009fb601a8362000bdf565b915062000a088262000f06565b602082019050919050565b600062000a22601d8362000bdf565b915062000a2f8262000f2f565b602082019050919050565b62000a458162000c81565b82525050565b600060408201905062000a62600083018562000966565b62000a71602083018462000a3a565b9392505050565b6000602082019050818103600083015262000a938162000977565b9050919050565b6000602082019050818103600083015262000ab5816200099e565b9050919050565b6000602082019050818103600083015262000ad781620009c5565b9050919050565b6000602082019050818103600083015262000af981620009ec565b9050919050565b6000602082019050818103600083015262000b1b8162000a13565b9050919050565b600062000b2e62000b41565b905062000b3c828262000cf7565b919050565b6000604051905090565b600067ffffffffffffffff82111562000b695762000b6862000dd9565b5b602082029050602081019050919050565b600067ffffffffffffffff82111562000b985762000b9762000dd9565b5b602082029050602081019050919050565b600067ffffffffffffffff82111562000bc75762000bc662000dd9565b5b62000bd28262000e08565b9050602081019050919050565b600082825260208201905092915050565b600062000bfd8262000c81565b915062000c0a8362000c81565b9250827fffffffffffffffffffffffffffffffffffffffffffffffffffffffffffffffff0382111562000c425762000c4162000d7b565b5b828201905092915050565b600062000c5a8262000c61565b9050919050565b600073ffffffffffffffffffffffffffffffffffffffff82169050919050565b6000819050919050565b60005b8381101562000cab57808201518184015260208101905062000c8e565b8381111562000cbb576000848401525b50505050565b6000600282049050600182168062000cda57607f821691505b6020821081141562000cf15762000cf062000daa565b5b50919050565b62000d028262000e08565b810181811067ffffffffffffffff8211171562000d245762000d2362000dd9565b5b80604052505050565b600062000d3a8262000c81565b91507fffffffffffffffffffffffffffffffffffffffffffffffffffffffffffffffff82141562000d705762000d6f62000d7b565b5b600182019050919050565b7f4e487b7100000000000000000000000000000000000000000000000000000000600052601160045260246000fd5b7f4e487b7100000000000000000000000000000000000000000000000000000000600052602260045260246000fd5b7f4e487b7100000000000000000000000000000000000000000000000000000000600052604160045260246000fd5b6000601f19601f8301169050919050565b7f5061796d656e7453706c69747465723a206163636f756e74206973207468652060008201527f7a65726f20616464726573730000000000000000000000000000000000000000602082015250565b7f5061796d656e7453706c69747465723a2070617965657320616e64207368617260008201527f6573206c656e677468206d69736d617463680000000000000000000000000000602082015250565b7f5061796d656e7453706c69747465723a206163636f756e7420616c726561647960008201527f2068617320736861726573000000000000000000000000000000000000000000602082015250565b7f5061796d656e7453706c69747465723a206e6f20706179656573000000000000600082015250565b7f5061796d656e7453706c69747465723a20736861726573206172652030000000600082015250565b62000f638162000c4d565b811462000f6f57600080fd5b50565b62000f7d8162000c81565b811462000f8957600080fd5b50565b615e5d8062000f9c6000396000f3fe6080604052600436106102555760003560e01c80638535205811610139578063a22cb465116100b6578063d6794bc91161007a578063d6794bc914610920578063d79779b21461095d578063e33b7de31461099a578063e985e9c5146109c5578063f2fde38b14610a02578063f9020e3314610a2b5761029c565b8063a22cb4651461082b578063a2964c7614610854578063b88d4fde1461087d578063c87b56dd146108a6578063ce7c2ac2146108e35761029c565b806392642744116100fd578063926427441461075157806395d89b411461076d578063977b055b146107985780639852595c146107c35780639dfde201146108005761029c565b80638535205814610680578063853828b6146106a95780638b83209b146106c05780638da5cb5b146106fd57806391b7f5ed146107285761029c565b8063406072a9116101d25780635c5e531c116101965780635c5e531c146105725780636352211e1461059b57806370a08231146105d85780637118974214610615578063715018a61461063e57806371de315c146106555761029c565b8063406072a91461047d57806342842e0e146104ba57806348b75044146104e35780634f6ccce71461050c57806355f804b3146105495761029c565b806318160ddd1161021957806318160ddd1461039857806319165587146103c357806323b872dd146103ec5780632f745c59146104155780633a98ef39146104525761029c565b806301ffc9a7146102a157806306fdde03146102de578063081812fc14610309578063084c408814610346578063095ea7b31461036f5761029c565b3661029c577f6ef95f06320e7a25a04a175ca677b7052bdd97131872c2192525a629f51be770610283610a56565b34604051610292929190614aca565b60405180910390a1005b600080fd5b3480156102ad57600080fd5b506102c860048036038101906102c391906142fe565b610a5e565b6040516102d59190614af3565b60405180910390f35b3480156102ea57600080fd5b506102f3610ad8565b6040516103009190614b29565b60405180910390f35b34801561031557600080fd5b50610330600480360381019061032b91906143f6565b610b6a565b60405161033d9190614a3a565b60405180910390f35b34801561035257600080fd5b5061036d600480360381019061036891906143f6565b610bef565b005b34801561037b57600080fd5b5061039660048036038101906103919190614245565b610cf6565b005b3480156103a457600080fd5b506103ad610e0e565b6040516103ba9190614f4b565b60405180910390f35b3480156103cf57600080fd5b506103ea60048036038101906103e591906140da565b610e1b565b005b3480156103f857600080fd5b50610413600480360381019061040e919061413f565b610fc6565b005b34801561042157600080fd5b5061043c60048036038101906104379190614245565b611026565b6040516104499190614f4b565b60405180910390f35b34801561045e57600080fd5b506104676110cb565b6040516104749190614f4b565b60405180910390f35b34801561048957600080fd5b506104a4600480360381019061049f9190614379565b6110d5565b6040516104b19190614f4b565b60405180910390f35b3480156104c657600080fd5b506104e160048036038101906104dc919061413f565b61115c565b005b3480156104ef57600080fd5b5061050a60048036038101906105059190614379565b61117c565b005b34801561051857600080fd5b50610533600480360381019061052e91906143f6565b611444565b6040516105409190614f4b565b60405180910390f35b34801561055557600080fd5b50610570600480360381019061056b91906143b5565b6114db565b005b34801561057e57600080fd5b5061059960048036038101906105949190614245565b611571565b005b3480156105a757600080fd5b506105c260048036038101906105bd91906143f6565b6116a5565b6040516105cf9190614a3a565b60405180910390f35b3480156105e457600080fd5b506105ff60048036038101906105fa91906140b1565b611757565b60405161060c9190614f4b565b60405180910390f35b34801561062157600080fd5b5061063c600480360381019061063791906143f6565b61180f565b005b34801561064a57600080fd5b50610653611895565b005b34801561066157600080fd5b5061066a61191d565b6040516106779190614f4b565b60405180910390f35b34801561068c57600080fd5b506106a760048036038101906106a29190614281565b611923565b005b3480156106b557600080fd5b506106be611a0d565b005b3480156106cc57600080fd5b506106e760048036038101906106e291906143f6565b611b22565b6040516106f49190614a3a565b60405180910390f35b34801561070957600080fd5b50610712611b90565b60405161071f9190614a3a565b60405180910390f35b34801561073457600080fd5b5061074f600480360381019061074a91906143f6565b611bba565b005b61076b600480360381019061076691906143f6565b611c40565b005b34801561077957600080fd5b50610782612167565b60405161078f9190614b29565b60405180910390f35b3480156107a457600080fd5b506107ad6121f9565b6040516107ba9190614f4b565b60405180910390f35b3480156107cf57600080fd5b506107ea60048036038101906107e591906140b1565b6121ff565b6040516107f79190614f4b565b60405180910390f35b34801561080c57600080fd5b50610815612248565b6040516108229190614f4b565b60405180910390f35b34801561083757600080fd5b50610852600480360381019061084d9190614209565b61224e565b005b34801561086057600080fd5b5061087b600480360381019061087691906140b1565b612264565b005b34801561088957600080fd5b506108a4600480360381019061089f919061418e565b612326565b005b3480156108b257600080fd5b506108cd60048036038101906108c891906143f6565b612388565b6040516108da9190614b29565b60405180910390f35b3480156108ef57600080fd5b5061090a600480360381019061090591906140b1565b61242f565b6040516109179190614f4b565b60405180910390f35b34801561092c57600080fd5b50610947600480360381019061094291906140b1565b612478565b6040516109549190614f4b565b60405180910390f35b34801561096957600080fd5b50610984600480360381019061097f9190614350565b612490565b6040516109919190614f4b565b60405180910390f35b3480156109a657600080fd5b506109af6124d9565b6040516109bc9190614f4b565b60405180910390f35b3480156109d157600080fd5b506109ec60048036038101906109e79190614103565b6124e3565b6040516109f99190614af3565b60405180910390f35b348015610a0e57600080fd5b50610a296004803603810190610a2491906140b1565b612577565b005b348015610a3757600080fd5b50610a4061266f565b604051610a4d9190614b0e565b60405180910390f35b600033905090565b60007f780e9d63000000000000000000000000000000000000000000000000000000007bffffffffffffffffffffffffffffffffffffffffffffffffffffffff1916827bffffffffffffffffffffffffffffffffffffffffffffffffffffffff19161480610ad15750610ad082612682565b5b9050919050565b606060008054610ae7906152b1565b80601f0160208091040260200160405190810160405280929190818152602001828054610b13906152b1565b8015610b605780601f10610b3557610100808354040283529160200191610b60565b820191906000526020600020905b815481529060010190602001808311610b4357829003601f168201915b5050505050905090565b6000610b7582612764565b610bb4576040517f08c379a0000000000000000000000000000000000000000000000000000000008152600401610bab90614deb565b60405180910390fd5b6004600083815260200190815260200160002060009054906101000a900473ffffffffffffffffffffffffffffffffffffffff169050919050565b610bf7610a56565b73ffffffffffffffffffffffffffffffffffffffff16610c15611b90565b73ffffffffffffffffffffffffffffffffffffffff1614610c6b576040517f08c379a0000000000000000000000000000000000000000000000000000000008152600401610c6290614e2b565b60405180910390fd5b806002811115610ca4577f4e487b7100000000000000000000000000000000000000000000000000000000600052602160045260246000fd5b601960006101000a81548160ff02191690836002811115610cee577f4e487b7100000000000000000000000000000000000000000000000000000000600052602160045260246000fd5b021790555050565b6000610d01826116a5565b90508073ffffffffffffffffffffffffffffffffffffffff168373ffffffffffffffffffffffffffffffffffffffff161415610d72576040517f08c379a0000000000000000000000000000000000000000000000000000000008152600401610d6990614e8b565b60405180910390fd5b8073ffffffffffffffffffffffffffffffffffffffff16610d91610a56565b73ffffffffffffffffffffffffffffffffffffffff161480610dc05750610dbf81610dba610a56565b6124e3565b5b610dff576040517f08c379a0000000000000000000000000000000000000000000000000000000008152600401610df690614d2b565b60405180910390fd5b610e0983836127d0565b505050565b6000600880549050905090565b6000600d60008373ffffffffffffffffffffffffffffffffffffffff1673ffffffffffffffffffffffffffffffffffffffff1681526020019081526020016000205411610e9d576040517f08c379a0000000000000000000000000000000000000000000000000000000008152600401610e9490614c2b565b60405180910390fd5b6000610ea76124d9565b47610eb29190615067565b90506000610ec98383610ec4866121ff565b612889565b90506000811415610f0f576040517f08c379a0000000000000000000000000000000000000000000000000000000008152600401610f0690614d0b565b60405180910390fd5b80600e60008573ffffffffffffffffffffffffffffffffffffffff1673ffffffffffffffffffffffffffffffffffffffff1681526020019081526020016000206000828254610f5e9190615067565b9250508190555080600c6000828254610f779190615067565b92505081905550610f8883826128f7565b7fdf20fd1e76bc69d672e4814fafb2c449bba3a5369d8359adf9e05e6fde87b0568382604051610fb9929190614a55565b60405180910390a1505050565b610fd7610fd1610a56565b826129eb565b611016576040517f08c379a000000000000000000000000000000000000000000000000000000000815260040161100d90614eab565b60405180910390fd5b611021838383612ac9565b505050565b600061103183611757565b8210611072576040517f08c379a000000000000000000000000000000000000000000000000000000000815260040161106990614b6b565b60405180910390fd5b600660008473ffffffffffffffffffffffffffffffffffffffff1673ffffffffffffffffffffffffffffffffffffffff168152602001908152602001600020600083815260200190815260200160002054905092915050565b6000600b54905090565b6000601160008473ffffffffffffffffffffffffffffffffffffffff1673ffffffffffffffffffffffffffffffffffffffff16815260200190815260200160002060008373ffffffffffffffffffffffffffffffffffffffff1673ffffffffffffffffffffffffffffffffffffffff16815260200190815260200160002054905092915050565b61117783838360405180602001604052806000815250612326565b505050565b6000600d60008373ffffffffffffffffffffffffffffffffffffffff1673ffffffffffffffffffffffffffffffffffffffff16815260200190815260200160002054116111fe576040517f08c379a00000000000000000000000000000000000000000000000000000000081526004016111f590614c2b565b60405180910390fd5b600061120983612490565b8373ffffffffffffffffffffffffffffffffffffffff166370a08231306040518263ffffffff1660e01b81526004016112429190614a3a565b60206040518083038186803b15801561125a57600080fd5b505afa15801561126e573d6000803e3d6000fd5b505050506040513d601f19601f82011682018060405250810190611292919061441f565b61129c9190615067565b905060006112b483836112af87876110d5565b612889565b905060008114156112fa576040517f08c379a00000000000000000000000000000000000000000000000000000000081526004016112f190614d0b565b60405180910390fd5b80601160008673ffffffffffffffffffffffffffffffffffffffff1673ffffffffffffffffffffffffffffffffffffffff16815260200190815260200160002060008573ffffffffffffffffffffffffffffffffffffffff1673ffffffffffffffffffffffffffffffffffffffff16815260200190815260200160002060008282546113869190615067565b9250508190555080601060008673ffffffffffffffffffffffffffffffffffffffff1673ffffffffffffffffffffffffffffffffffffffff16815260200190815260200160002060008282546113dc9190615067565b925050819055506113ee848483612d30565b8373ffffffffffffffffffffffffffffffffffffffff167f3be5b7a71e84ed12875d241991c70855ac5817d847039e17a9d895c1ceb0f18a8483604051611436929190614aca565b60405180910390a250505050565b600061144e610e0e565b821061148f576040517f08c379a000000000000000000000000000000000000000000000000000000000815260040161148690614eeb565b60405180910390fd5b600882815481106114c9577f4e487b7100000000000000000000000000000000000000000000000000000000600052603260045260246000fd5b90600052602060002001549050919050565b6114e3610a56565b73ffffffffffffffffffffffffffffffffffffffff16611501611b90565b73ffffffffffffffffffffffffffffffffffffffff1614611557576040517f08c379a000000000000000000000000000000000000000000000000000000000815260040161154e90614e2b565b60405180910390fd5b806016908051906020019061156d929190613deb565b5050565b611579610a56565b73ffffffffffffffffffffffffffffffffffffffff16611597611b90565b73ffffffffffffffffffffffffffffffffffffffff16146115ed576040517f08c379a00000000000000000000000000000000000000000000000000000000081526004016115e490614e2b565b60405180910390fd5b600073ffffffffffffffffffffffffffffffffffffffff168273ffffffffffffffffffffffffffffffffffffffff16141561165d576040517f08c379a000000000000000000000000000000000000000000000000000000000815260040161165490614d4b565b60405180910390fd5b80601860008473ffffffffffffffffffffffffffffffffffffffff1673ffffffffffffffffffffffffffffffffffffffff168152602001908152602001600020819055505050565b6000806002600084815260200190815260200160002060009054906101000a900473ffffffffffffffffffffffffffffffffffffffff169050600073ffffffffffffffffffffffffffffffffffffffff168173ffffffffffffffffffffffffffffffffffffffff16141561174e576040517f08c379a000000000000000000000000000000000000000000000000000000000815260040161174590614d8b565b60405180910390fd5b80915050919050565b60008073ffffffffffffffffffffffffffffffffffffffff168273ffffffffffffffffffffffffffffffffffffffff1614156117c8576040517f08c379a00000000000000000000000000000000000000000000000000000000081526004016117bf90614d6b565b60405180910390fd5b600360008373ffffffffffffffffffffffffffffffffffffffff1673ffffffffffffffffffffffffffffffffffffffff168152602001908152602001600020549050919050565b611817610a56565b73ffffffffffffffffffffffffffffffffffffffff16611835611b90565b73ffffffffffffffffffffffffffffffffffffffff161461188b576040517f08c379a000000000000000000000000000000000000000000000000000000000815260040161188290614e2b565b60405180910390fd5b8060148190555050565b61189d610a56565b73ffffffffffffffffffffffffffffffffffffffff166118bb611b90565b73ffffffffffffffffffffffffffffffffffffffff1614611911576040517f08c379a000000000000000000000000000000000000000000000000000000000815260040161190890614e2b565b60405180910390fd5b61191b6000612db6565b565b60155481565b61192b610a56565b73ffffffffffffffffffffffffffffffffffffffff16611949611b90565b73ffffffffffffffffffffffffffffffffffffffff161461199f576040517f08c379a000000000000000000000000000000000000000000000000000000000815260040161199690614e2b565b60405180910390fd5b60005b8251811015611a08576119f58382815181106119e7577f4e487b7100000000000000000000000000000000000000000000000000000000600052603260045260246000fd5b602002602001015183611571565b8080611a0090615314565b9150506119a2565b505050565b611a15610a56565b73ffffffffffffffffffffffffffffffffffffffff16611a33611b90565b73ffffffffffffffffffffffffffffffffffffffff1614611a89576040517f08c379a0000000000000000000000000000000000000000000000000000000008152600401611a8090614e2b565b60405180910390fd5b60005b601780549050811015611b1f57600060178281548110611ad5577f4e487b7100000000000000000000000000000000000000000000000000000000600052603260045260246000fd5b9060005260206000200160009054906101000a900473ffffffffffffffffffffffffffffffffffffffff169050611b0b81610e1b565b508080611b1790615314565b915050611a8c565b50565b6000600f8281548110611b5e577f4e487b7100000000000000000000000000000000000000000000000000000000600052603260045260246000fd5b9060005260206000200160009054906101000a900473ffffffffffffffffffffffffffffffffffffffff169050919050565b6000600a60009054906101000a900473ffffffffffffffffffffffffffffffffffffffff16905090565b611bc2610a56565b73ffffffffffffffffffffffffffffffffffffffff16611be0611b90565b73ffffffffffffffffffffffffffffffffffffffff1614611c36576040517f08c379a0000000000000000000000000000000000000000000000000000000008152600401611c2d90614e2b565b60405180910390fd5b8060138190555050565b60026012541415611c86576040517f08c379a0000000000000000000000000000000000000000000000000000000008152600401611c7d90614f2b565b60405180910390fd5b6002601281905550600280811115611cc7577f4e487b7100000000000000000000000000000000000000000000000000000000600052602160045260246000fd5b601960009054906101000a900460ff166002811115611d0f577f4e487b7100000000000000000000000000000000000000000000000000000000600052602160045260246000fd5b1480611d9a575060016002811115611d50577f4e487b7100000000000000000000000000000000000000000000000000000000600052602160045260246000fd5b601960009054906101000a900460ff166002811115611d98577f4e487b7100000000000000000000000000000000000000000000000000000000600052602160045260246000fd5b145b611dd9576040517f08c379a0000000000000000000000000000000000000000000000000000000008152600401611dd090614b4b565b60405180910390fd5b60016002811115611e13577f4e487b7100000000000000000000000000000000000000000000000000000000600052602160045260246000fd5b601960009054906101000a900460ff166002811115611e5b577f4e487b7100000000000000000000000000000000000000000000000000000000600052602160045260246000fd5b1415611ee45780601860003373ffffffffffffffffffffffffffffffffffffffff1673ffffffffffffffffffffffffffffffffffffffff168152602001908152602001600020541015611ee3576040517f08c379a0000000000000000000000000000000000000000000000000000000008152600401611eda90614c0b565b60405180910390fd5b5b601454811115611f29576040517f08c379a0000000000000000000000000000000000000000000000000000000008152600401611f2090614e0b565b60405180910390fd5b60145481611f3633611757565b611f409190615067565b1115611f81576040517f08c379a0000000000000000000000000000000000000000000000000000000008152600401611f7890614e0b565b60405180910390fd5b60155481611f8d610e0e565b611f979190615067565b1115611fd8576040517f08c379a0000000000000000000000000000000000000000000000000000000008152600401611fcf90614e6b565b60405180910390fd5b3481601354611fe791906150ee565b1115612028576040517f08c379a000000000000000000000000000000000000000000000000000000000815260040161201f90614dab565b60405180910390fd5b60005b8181101561215b576000600161203f610e0e565b6120499190615067565b9050601554612056610e0e565b1015612147576120663382612e7c565b600160028111156120a0577f4e487b7100000000000000000000000000000000000000000000000000000000600052602160045260246000fd5b601960009054906101000a900460ff1660028111156120e8577f4e487b7100000000000000000000000000000000000000000000000000000000600052602160045260246000fd5b1415612146576001601860003373ffffffffffffffffffffffffffffffffffffffff1673ffffffffffffffffffffffffffffffffffffffff168152602001908152602001600020600082825461213e9190615148565b925050819055505b5b50808061215390615314565b91505061202b565b50600160128190555050565b606060018054612176906152b1565b80601f01602080910402602001604051908101604052809291908181526020018280546121a2906152b1565b80156121ef5780601f106121c4576101008083540402835291602001916121ef565b820191906000526020600020905b8154815290600101906020018083116121d257829003601f168201915b5050505050905090565b60145481565b6000600e60008373ffffffffffffffffffffffffffffffffffffffff1673ffffffffffffffffffffffffffffffffffffffff168152602001908152602001600020549050919050565b60135481565b612260612259610a56565b8383612e9a565b5050565b61226c610a56565b73ffffffffffffffffffffffffffffffffffffffff1661228a611b90565b73ffffffffffffffffffffffffffffffffffffffff16146122e0576040517f08c379a00000000000000000000000000000000000000000000000000000000081526004016122d790614e2b565b60405180910390fd5b601860008273ffffffffffffffffffffffffffffffffffffffff1673ffffffffffffffffffffffffffffffffffffffff1681526020019081526020016000206000905550565b612337612331610a56565b836129eb565b612376576040517f08c379a000000000000000000000000000000000000000000000000000000000815260040161236d90614eab565b60405180910390fd5b61238284848484613007565b50505050565b606061239382612764565b6123d2576040517f08c379a00000000000000000000000000000000000000000000000000000000081526004016123c990614e4b565b60405180910390fd5b60006123dc613063565b905060008151116123fc5760405180602001604052806000815250612427565b80612406846130f5565b604051602001612417929190614a01565b6040516020818303038152906040525b915050919050565b6000600d60008373ffffffffffffffffffffffffffffffffffffffff1673ffffffffffffffffffffffffffffffffffffffff168152602001908152602001600020549050919050565b60186020528060005260406000206000915090505481565b6000601060008373ffffffffffffffffffffffffffffffffffffffff1673ffffffffffffffffffffffffffffffffffffffff168152602001908152602001600020549050919050565b6000600c54905090565b6000600560008473ffffffffffffffffffffffffffffffffffffffff1673ffffffffffffffffffffffffffffffffffffffff16815260200190815260200160002060008373ffffffffffffffffffffffffffffffffffffffff1673ffffffffffffffffffffffffffffffffffffffff16815260200190815260200160002060009054906101000a900460ff16905092915050565b61257f610a56565b73ffffffffffffffffffffffffffffffffffffffff1661259d611b90565b73ffffffffffffffffffffffffffffffffffffffff16146125f3576040517f08c379a00000000000000000000000000000000000000000000000000000000081526004016125ea90614e2b565b60405180910390fd5b600073ffffffffffffffffffffffffffffffffffffffff168173ffffffffffffffffffffffffffffffffffffffff161415612663576040517f08c379a000000000000000000000000000000000000000000000000000000000815260040161265a90614bab565b60405180910390fd5b61266c81612db6565b50565b601960009054906101000a900460ff1681565b60007f80ac58cd000000000000000000000000000000000000000000000000000000007bffffffffffffffffffffffffffffffffffffffffffffffffffffffff1916827bffffffffffffffffffffffffffffffffffffffffffffffffffffffff1916148061274d57507f5b5e139f000000000000000000000000000000000000000000000000000000007bffffffffffffffffffffffffffffffffffffffffffffffffffffffff1916827bffffffffffffffffffffffffffffffffffffffffffffffffffffffff1916145b8061275d575061275c826132a2565b5b9050919050565b60008073ffffffffffffffffffffffffffffffffffffffff166002600084815260200190815260200160002060009054906101000a900473ffffffffffffffffffffffffffffffffffffffff1673ffffffffffffffffffffffffffffffffffffffff1614159050919050565b816004600083815260200190815260200160002060006101000a81548173ffffffffffffffffffffffffffffffffffffffff021916908373ffffffffffffffffffffffffffffffffffffffff160217905550808273ffffffffffffffffffffffffffffffffffffffff16612843836116a5565b73ffffffffffffffffffffffffffffffffffffffff167f8c5be1e5ebec7d5bd14f71427d1e84f3dd0314c0f7b2291e5b200ac8c7c3b92560405160405180910390a45050565b600081600b54600d60008773ffffffffffffffffffffffffffffffffffffffff1673ffffffffffffffffffffffffffffffffffffffff16815260200190815260200160002054856128da91906150ee565b6128e491906150bd565b6128ee9190615148565b90509392505050565b8047101561293a576040517f08c379a000000000000000000000000000000000000000000000000000000000815260040161293190614cab565b60405180910390fd5b60008273ffffffffffffffffffffffffffffffffffffffff168260405161296090614a25565b60006040518083038185875af1925050503d806000811461299d576040519150601f19603f3d011682016040523d82523d6000602084013e6129a2565b606091505b50509050806129e6576040517f08c379a00000000000000000000000000000000000000000000000000000000081526004016129dd90614c8b565b60405180910390fd5b505050565b60006129f682612764565b612a35576040517f08c379a0000000000000000000000000000000000000000000000000000000008152600401612a2c90614ceb565b60405180910390fd5b6000612a40836116a5565b90508073ffffffffffffffffffffffffffffffffffffffff168473ffffffffffffffffffffffffffffffffffffffff161480612aaf57508373ffffffffffffffffffffffffffffffffffffffff16612a9784610b6a565b73ffffffffffffffffffffffffffffffffffffffff16145b80612ac05750612abf81856124e3565b5b91505092915050565b8273ffffffffffffffffffffffffffffffffffffffff16612ae9826116a5565b73ffffffffffffffffffffffffffffffffffffffff1614612b3f576040517f08c379a0000000000000000000000000000000000000000000000000000000008152600401612b3690614bcb565b60405180910390fd5b600073ffffffffffffffffffffffffffffffffffffffff168273ffffffffffffffffffffffffffffffffffffffff161415612baf576040517f08c379a0000000000000000000000000000000000000000000000000000000008152600401612ba690614c4b565b60405180910390fd5b612bba83838361330c565b612bc56000826127d0565b6001600360008573ffffffffffffffffffffffffffffffffffffffff1673ffffffffffffffffffffffffffffffffffffffff1681526020019081526020016000206000828254612c159190615148565b925050819055506001600360008473ffffffffffffffffffffffffffffffffffffffff1673ffffffffffffffffffffffffffffffffffffffff1681526020019081526020016000206000828254612c6c9190615067565b92505081905550816002600083815260200190815260200160002060006101000a81548173ffffffffffffffffffffffffffffffffffffffff021916908373ffffffffffffffffffffffffffffffffffffffff160217905550808273ffffffffffffffffffffffffffffffffffffffff168473ffffffffffffffffffffffffffffffffffffffff167fddf252ad1be2c89b69c2b068fc378daa952ba7f163c4a11628f55a4df523b3ef60405160405180910390a4612d2b838383613420565b505050565b612db18363a9059cbb60e01b8484604051602401612d4f929190614aca565b604051602081830303815290604052907bffffffffffffffffffffffffffffffffffffffffffffffffffffffff19166020820180517bffffffffffffffffffffffffffffffffffffffffffffffffffffffff8381831617835250505050613425565b505050565b6000600a60009054906101000a900473ffffffffffffffffffffffffffffffffffffffff16905081600a60006101000a81548173ffffffffffffffffffffffffffffffffffffffff021916908373ffffffffffffffffffffffffffffffffffffffff1602179055508173ffffffffffffffffffffffffffffffffffffffff168173ffffffffffffffffffffffffffffffffffffffff167f8be0079c531659141344cd1fd0a4f28419497f9722a3daafe3b4186f6b6457e060405160405180910390a35050565b612e968282604051806020016040528060008152506134ec565b5050565b8173ffffffffffffffffffffffffffffffffffffffff168373ffffffffffffffffffffffffffffffffffffffff161415612f09576040517f08c379a0000000000000000000000000000000000000000000000000000000008152600401612f0090614c6b565b60405180910390fd5b80600560008573ffffffffffffffffffffffffffffffffffffffff1673ffffffffffffffffffffffffffffffffffffffff16815260200190815260200160002060008473ffffffffffffffffffffffffffffffffffffffff1673ffffffffffffffffffffffffffffffffffffffff16815260200190815260200160002060006101000a81548160ff0219169083151502179055508173ffffffffffffffffffffffffffffffffffffffff168373ffffffffffffffffffffffffffffffffffffffff167f17307eab39ab6107e8899845ad3d59bd9653f200f220920489ca2b5937696c3183604051612ffa9190614af3565b60405180910390a3505050565b613012848484612ac9565b61301e84848484613547565b61305d576040517f08c379a000000000000000000000000000000000000000000000000000000000815260040161305490614b8b565b60405180910390fd5b50505050565b606060168054613072906152b1565b80601f016020809104026020016040519081016040528092919081815260200182805461309e906152b1565b80156130eb5780601f106130c0576101008083540402835291602001916130eb565b820191906000526020600020905b8154815290600101906020018083116130ce57829003601f168201915b5050505050905090565b6060600082141561313d576040518060400160405280600181526020017f3000000000000000000000000000000000000000000000000000000000000000815250905061329d565b600082905060005b6000821461316f57808061315890615314565b915050600a8261316891906150bd565b9150613145565b60008167ffffffffffffffff8111156131b1577f4e487b7100000000000000000000000000000000000000000000000000000000600052604160045260246000fd5b6040519080825280601f01601f1916602001820160405280156131e35781602001600182028036833780820191505090505b5090505b60008514613296576001826131fc9190615148565b9150600a8561320b919061535d565b60306132179190615067565b60f81b818381518110613253577f4e487b7100000000000000000000000000000000000000000000000000000000600052603260045260246000fd5b60200101907effffffffffffffffffffffffffffffffffffffffffffffffffffffffffffff1916908160001a905350600a8561328f91906150bd565b94506131e7565b8093505050505b919050565b60007f01ffc9a7000000000000000000000000000000000000000000000000000000007bffffffffffffffffffffffffffffffffffffffffffffffffffffffff1916827bffffffffffffffffffffffffffffffffffffffffffffffffffffffff1916149050919050565b6133178383836136de565b600073ffffffffffffffffffffffffffffffffffffffff168373ffffffffffffffffffffffffffffffffffffffff16141561335a57613355816136e3565b613399565b8173ffffffffffffffffffffffffffffffffffffffff168373ffffffffffffffffffffffffffffffffffffffff161461339857613397838261372c565b5b5b600073ffffffffffffffffffffffffffffffffffffffff168273ffffffffffffffffffffffffffffffffffffffff1614156133dc576133d781613899565b61341b565b8273ffffffffffffffffffffffffffffffffffffffff168273ffffffffffffffffffffffffffffffffffffffff161461341a5761341982826139dc565b5b5b505050565b505050565b6000613487826040518060400160405280602081526020017f5361666545524332303a206c6f772d6c6576656c2063616c6c206661696c65648152508573ffffffffffffffffffffffffffffffffffffffff16613a5b9092919063ffffffff16565b90506000815111156134e757808060200190518101906134a791906142d5565b6134e6576040517f08c379a00000000000000000000000000000000000000000000000000000000081526004016134dd90614f0b565b60405180910390fd5b5b505050565b6134f68383613a73565b6135036000848484613547565b613542576040517f08c379a000000000000000000000000000000000000000000000000000000000815260040161353990614b8b565b60405180910390fd5b505050565b60006135688473ffffffffffffffffffffffffffffffffffffffff16613c4d565b156136d1578373ffffffffffffffffffffffffffffffffffffffff1663150b7a02613591610a56565b8786866040518563ffffffff1660e01b81526004016135b39493929190614a7e565b602060405180830381600087803b1580156135cd57600080fd5b505af19250505080156135fe57506040513d601f19601f820116820180604052508101906135fb9190614327565b60015b613681573d806000811461362e576040519150601f19603f3d011682016040523d82523d6000602084013e613633565b606091505b50600081511415613679576040517f08c379a000000000000000000000000000000000000000000000000000000000815260040161367090614b8b565b60405180910390fd5b805181602001fd5b63150b7a0260e01b7bffffffffffffffffffffffffffffffffffffffffffffffffffffffff1916817bffffffffffffffffffffffffffffffffffffffffffffffffffffffff1916149150506136d6565b600190505b949350505050565b505050565b6008805490506009600083815260200190815260200160002081905550600881908060018154018082558091505060019003906000526020600020016000909190919091505550565b6000600161373984611757565b6137439190615148565b9050600060076000848152602001908152602001600020549050818114613828576000600660008673ffffffffffffffffffffffffffffffffffffffff1673ffffffffffffffffffffffffffffffffffffffff168152602001908152602001600020600084815260200190815260200160002054905080600660008773ffffffffffffffffffffffffffffffffffffffff1673ffffffffffffffffffffffffffffffffffffffff168152602001908152602001600020600084815260200190815260200160002081905550816007600083815260200190815260200160002081905550505b6007600084815260200190815260200160002060009055600660008573ffffffffffffffffffffffffffffffffffffffff1673ffffffffffffffffffffffffffffffffffffffff16815260200190815260200160002060008381526020019081526020016000206000905550505050565b600060016008805490506138ad9190615148565b9050600060096000848152602001908152602001600020549050600060088381548110613903577f4e487b7100000000000000000000000000000000000000000000000000000000600052603260045260246000fd5b90600052602060002001549050806008838154811061394b577f4e487b7100000000000000000000000000000000000000000000000000000000600052603260045260246000fd5b9060005260206000200181905550816009600083815260200190815260200160002081905550600960008581526020019081526020016000206000905560088054806139c0577f4e487b7100000000000000000000000000000000000000000000000000000000600052603160045260246000fd5b6001900381819060005260206000200160009055905550505050565b60006139e783611757565b905081600660008573ffffffffffffffffffffffffffffffffffffffff1673ffffffffffffffffffffffffffffffffffffffff168152602001908152602001600020600083815260200190815260200160002081905550806007600084815260200190815260200160002081905550505050565b6060613a6a8484600085613c70565b90509392505050565b600073ffffffffffffffffffffffffffffffffffffffff168273ffffffffffffffffffffffffffffffffffffffff161415613ae3576040517f08c379a0000000000000000000000000000000000000000000000000000000008152600401613ada90614dcb565b60405180910390fd5b613aec81612764565b15613b2c576040517f08c379a0000000000000000000000000000000000000000000000000000000008152600401613b2390614beb565b60405180910390fd5b613b386000838361330c565b6001600360008473ffffffffffffffffffffffffffffffffffffffff1673ffffffffffffffffffffffffffffffffffffffff1681526020019081526020016000206000828254613b889190615067565b92505081905550816002600083815260200190815260200160002060006101000a81548173ffffffffffffffffffffffffffffffffffffffff021916908373ffffffffffffffffffffffffffffffffffffffff160217905550808273ffffffffffffffffffffffffffffffffffffffff16600073ffffffffffffffffffffffffffffffffffffffff167fddf252ad1be2c89b69c2b068fc378daa952ba7f163c4a11628f55a4df523b3ef60405160405180910390a4613c4960008383613420565b5050565b6000808273ffffffffffffffffffffffffffffffffffffffff163b119050919050565b606082471015613cb5576040517f08c379a0000000000000000000000000000000000000000000000000000000008152600401613cac90614ccb565b60405180910390fd5b613cbe85613c4d565b613cfd576040517f08c379a0000000000000000000000000000000000000000000000000000000008152600401613cf490614ecb565b60405180910390fd5b6000808673ffffffffffffffffffffffffffffffffffffffff168587604051613d2691906149ea565b60006040518083038185875af1925050503d8060008114613d63576040519150601f19603f3d011682016040523d82523d6000602084013e613d68565b606091505b5091509150613d78828286613d84565b92505050949350505050565b60608315613d9457829050613de4565b600083511115613da75782518084602001fd5b816040517f08c379a0000000000000000000000000000000000000000000000000000000008152600401613ddb9190614b29565b60405180910390fd5b9392505050565b828054613df7906152b1565b90600052602060002090601f016020900481019282613e195760008555613e60565b82601f10613e3257805160ff1916838001178555613e60565b82800160010185558215613e60579182015b82811115613e5f578251825591602001919060010190613e44565b5b509050613e6d9190613e71565b5090565b5b80821115613e8a576000816000905550600101613e72565b5090565b6000613ea1613e9c84614f8b565b614f66565b90508083825260208201905082856020860282011115613ec057600080fd5b60005b85811015613ef05781613ed68882613f76565b845260208401935060208301925050600181019050613ec3565b5050509392505050565b6000613f0d613f0884614fb7565b614f66565b905082815260208101848484011115613f2557600080fd5b613f3084828561526f565b509392505050565b6000613f4b613f4684614fe8565b614f66565b905082815260208101848484011115613f6357600080fd5b613f6e84828561526f565b509392505050565b600081359050613f8581615d9d565b92915050565b600081359050613f9a81615db4565b92915050565b600082601f830112613fb157600080fd5b8135613fc1848260208601613e8e565b91505092915050565b600081359050613fd981615dcb565b92915050565b600081519050613fee81615dcb565b92915050565b60008135905061400381615de2565b92915050565b60008151905061401881615de2565b92915050565b600082601f83011261402f57600080fd5b813561403f848260208601613efa565b91505092915050565b60008135905061405781615df9565b92915050565b600082601f83011261406e57600080fd5b813561407e848260208601613f38565b91505092915050565b60008135905061409681615e10565b92915050565b6000815190506140ab81615e10565b92915050565b6000602082840312156140c357600080fd5b60006140d184828501613f76565b91505092915050565b6000602082840312156140ec57600080fd5b60006140fa84828501613f8b565b91505092915050565b6000806040838503121561411657600080fd5b600061412485828601613f76565b925050602061413585828601613f76565b9150509250929050565b60008060006060848603121561415457600080fd5b600061416286828701613f76565b935050602061417386828701613f76565b925050604061418486828701614087565b9150509250925092565b600080600080608085870312156141a457600080fd5b60006141b287828801613f76565b94505060206141c387828801613f76565b93505060406141d487828801614087565b925050606085013567ffffffffffffffff8111156141f157600080fd5b6141fd8782880161401e565b91505092959194509250565b6000806040838503121561421c57600080fd5b600061422a85828601613f76565b925050602061423b85828601613fca565b9150509250929050565b6000806040838503121561425857600080fd5b600061426685828601613f76565b925050602061427785828601614087565b9150509250929050565b6000806040838503121561429457600080fd5b600083013567ffffffffffffffff8111156142ae57600080fd5b6142ba85828601613fa0565b92505060206142cb85828601614087565b9150509250929050565b6000602082840312156142e757600080fd5b60006142f584828501613fdf565b91505092915050565b60006020828403121561431057600080fd5b600061431e84828501613ff4565b91505092915050565b60006020828403121561433957600080fd5b600061434784828501614009565b91505092915050565b60006020828403121561436257600080fd5b600061437084828501614048565b91505092915050565b6000806040838503121561438c57600080fd5b600061439a85828601614048565b92505060206143ab85828601613f76565b9150509250929050565b6000602082840312156143c757600080fd5b600082013567ffffffffffffffff8111156143e157600080fd5b6143ed8482850161405d565b91505092915050565b60006020828403121561440857600080fd5b600061441684828501614087565b91505092915050565b60006020828403121561443157600080fd5b600061443f8482850161409c565b91505092915050565b61445181615227565b82525050565b6144608161517c565b82525050565b61446f816151a0565b82525050565b600061448082615019565b61448a818561502f565b935061449a81856020860161527e565b6144a381615479565b840191505092915050565b60006144b982615019565b6144c38185615040565b93506144d381856020860161527e565b80840191505092915050565b6144e881615239565b82525050565b60006144f982615024565b614503818561504b565b935061451381856020860161527e565b61451c81615479565b840191505092915050565b600061453282615024565b61453c818561505c565b935061454c81856020860161527e565b80840191505092915050565b600061456560308361504b565b91506145708261548a565b604082019050919050565b6000614588602b8361504b565b9150614593826154d9565b604082019050919050565b60006145ab60328361504b565b91506145b682615528565b604082019050919050565b60006145ce60268361504b565b91506145d982615577565b604082019050919050565b60006145f160258361504b565b91506145fc826155c6565b604082019050919050565b6000614614601c8361504b565b915061461f82615615565b602082019050919050565b600061463760468361504b565b91506146428261563e565b606082019050919050565b600061465a60268361504b565b9150614665826156b3565b604082019050919050565b600061467d60248361504b565b915061468882615702565b604082019050919050565b60006146a060198361504b565b91506146ab82615751565b602082019050919050565b60006146c3603a8361504b565b91506146ce8261577a565b604082019050919050565b60006146e6601d8361504b565b91506146f1826157c9565b602082019050919050565b600061470960268361504b565b9150614714826157f2565b604082019050919050565b600061472c602c8361504b565b915061473782615841565b604082019050919050565b600061474f602b8361504b565b915061475a82615890565b604082019050919050565b600061477260388361504b565b915061477d826158df565b604082019050919050565b6000614795602c8361504b565b91506147a08261592e565b604082019050919050565b60006147b8602a8361504b565b91506147c38261597d565b604082019050919050565b60006147db60298361504b565b91506147e6826159cc565b604082019050919050565b60006147fe60258361504b565b915061480982615a1b565b604082019050919050565b600061482160208361504b565b915061482c82615a6a565b602082019050919050565b6000614844602c8361504b565b915061484f82615a93565b604082019050919050565b6000614867602e8361504b565b915061487282615ae2565b604082019050919050565b600061488a60208361504b565b915061489582615b31565b602082019050919050565b60006148ad602f8361504b565b91506148b882615b5a565b604082019050919050565b60006148d0602e8361504b565b91506148db82615ba9565b604082019050919050565b60006148f360218361504b565b91506148fe82615bf8565b604082019050919050565b6000614916600083615040565b915061492182615c47565b600082019050919050565b600061493960318361504b565b915061494482615c4a565b604082019050919050565b600061495c601d8361504b565b915061496782615c99565b602082019050919050565b600061497f602c8361504b565b915061498a82615cc2565b604082019050919050565b60006149a2602a8361504b565b91506149ad82615d11565b604082019050919050565b60006149c5601f8361504b565b91506149d082615d60565b602082019050919050565b6149e48161521d565b82525050565b60006149f682846144ae565b915081905092915050565b6000614a0d8285614527565b9150614a198284614527565b91508190509392505050565b6000614a3082614909565b9150819050919050565b6000602082019050614a4f6000830184614457565b92915050565b6000604082019050614a6a6000830185614448565b614a7760208301846149db565b9392505050565b6000608082019050614a936000830187614457565b614aa06020830186614457565b614aad60408301856149db565b8181036060830152614abf8184614475565b905095945050505050565b6000604082019050614adf6000830185614457565b614aec60208301846149db565b9392505050565b6000602082019050614b086000830184614466565b92915050565b6000602082019050614b2360008301846144df565b92915050565b60006020820190508181036000830152614b4381846144ee565b905092915050565b60006020820190508181036000830152614b6481614558565b9050919050565b60006020820190508181036000830152614b848161457b565b9050919050565b60006020820190508181036000830152614ba48161459e565b9050919050565b60006020820190508181036000830152614bc4816145c1565b9050919050565b60006020820190508181036000830152614be4816145e4565b9050919050565b60006020820190508181036000830152614c0481614607565b9050919050565b60006020820190508181036000830152614c248161462a565b9050919050565b60006020820190508181036000830152614c448161464d565b9050919050565b60006020820190508181036000830152614c6481614670565b9050919050565b60006020820190508181036000830152614c8481614693565b9050919050565b60006020820190508181036000830152614ca4816146b6565b9050919050565b60006020820190508181036000830152614cc4816146d9565b9050919050565b60006020820190508181036000830152614ce4816146fc565b9050919050565b60006020820190508181036000830152614d048161471f565b9050919050565b60006020820190508181036000830152614d2481614742565b9050919050565b60006020820190508181036000830152614d4481614765565b9050919050565b60006020820190508181036000830152614d6481614788565b9050919050565b60006020820190508181036000830152614d84816147ab565b9050919050565b60006020820190508181036000830152614da4816147ce565b9050919050565b60006020820190508181036000830152614dc4816147f1565b9050919050565b60006020820190508181036000830152614de481614814565b9050919050565b60006020820190508181036000830152614e0481614837565b9050919050565b60006020820190508181036000830152614e248161485a565b9050919050565b60006020820190508181036000830152614e448161487d565b9050919050565b60006020820190508181036000830152614e64816148a0565b9050919050565b60006020820190508181036000830152614e84816148c3565b9050919050565b60006020820190508181036000830152614ea4816148e6565b9050919050565b60006020820190508181036000830152614ec48161492c565b9050919050565b60006020820190508181036000830152614ee48161494f565b9050919050565b60006020820190508181036000830152614f0481614972565b9050919050565b60006020820190508181036000830152614f2481614995565b9050919050565b60006020820190508181036000830152614f44816149b8565b9050919050565b6000602082019050614f6060008301846149db565b92915050565b6000614f70614f81565b9050614f7c82826152e3565b919050565b6000604051905090565b600067ffffffffffffffff821115614fa657614fa561544a565b5b602082029050602081019050919050565b600067ffffffffffffffff821115614fd257614fd161544a565b5b614fdb82615479565b9050602081019050919050565b600067ffffffffffffffff8211156150035761500261544a565b5b61500c82615479565b9050602081019050919050565b600081519050919050565b600081519050919050565b600082825260208201905092915050565b600081905092915050565b600082825260208201905092915050565b600081905092915050565b60006150728261521d565b915061507d8361521d565b9250827fffffffffffffffffffffffffffffffffffffffffffffffffffffffffffffffff038211156150b2576150b161538e565b5b828201905092915050565b60006150c88261521d565b91506150d38361521d565b9250826150e3576150e26153bd565b5b828204905092915050565b60006150f98261521d565b91506151048361521d565b9250817fffffffffffffffffffffffffffffffffffffffffffffffffffffffffffffffff048311821515161561513d5761513c61538e565b5b828202905092915050565b60006151538261521d565b915061515e8361521d565b9250828210156151715761517061538e565b5b828203905092915050565b6000615187826151fd565b9050919050565b6000615199826151fd565b9050919050565b60008115159050919050565b60007fffffffff0000000000000000000000000000000000000000000000000000000082169050919050565b60006151e38261517c565b9050919050565b60008190506151f882615d89565b919050565b600073ffffffffffffffffffffffffffffffffffffffff82169050919050565b6000819050919050565b60006152328261524b565b9050919050565b6000615244826151ea565b9050919050565b60006152568261525d565b9050919050565b6000615268826151fd565b9050919050565b82818337600083830152505050565b60005b8381101561529c578082015181840152602081019050615281565b838111156152ab576000848401525b50505050565b600060028204905060018216806152c957607f821691505b602082108114156152dd576152dc61541b565b5b50919050565b6152ec82615479565b810181811067ffffffffffffffff8211171561530b5761530a61544a565b5b80604052505050565b600061531f8261521d565b91507fffffffffffffffffffffffffffffffffffffffffffffffffffffffffffffffff8214156153525761535161538e565b5b600182019050919050565b60006153688261521d565b91506153738361521d565b925082615383576153826153bd565b5b828206905092915050565b7f4e487b7100000000000000000000000000000000000000000000000000000000600052601160045260246000fd5b7f4e487b7100000000000000000000000000000000000000000000000000000000600052601260045260246000fd5b7f4e487b7100000000000000000000000000000000000000000000000000000000600052602160045260246000fd5b7f4e487b7100000000000000000000000000000000000000000000000000000000600052602260045260246000fd5b7f4e487b7100000000000000000000000000000000000000000000000000000000600052604160045260246000fd5b6000601f19601f8301169050919050565b7f4e46543a2053616c65206d75737420626520616374697665206f7220696e207060008201527f726573616c65206d696e74204e46542e00000000000000000000000000000000602082015250565b7f455243373231456e756d657261626c653a206f776e657220696e646578206f7560008201527f74206f6620626f756e6473000000000000000000000000000000000000000000602082015250565b7f4552433732313a207472616e7366657220746f206e6f6e20455243373231526560008201527f63656976657220696d706c656d656e7465720000000000000000000000000000602082015250565b7f4f776e61626c653a206e6577206f776e657220697320746865207a65726f206160008201527f6464726573730000000000000000000000000000000000000000000000000000602082015250565b7f4552433732313a207472616e736665722066726f6d20696e636f72726563742060008201527f6f776e6572000000000000000000000000000000000000000000000000000000602082015250565b7f4552433732313a20746f6b656e20616c7265616479206d696e74656400000000600082015250565b7f4e46543a20596f7520646f6e2774206e6f74206861766520656e6f756768207060008201527f726573616c6520766f75636865727320746f206d696e742074686174206d616e60208201527f79204e46542e0000000000000000000000000000000000000000000000000000604082015250565b7f5061796d656e7453706c69747465723a206163636f756e7420686173206e6f2060008201527f7368617265730000000000000000000000000000000000000000000000000000602082015250565b7f4552433732313a207472616e7366657220746f20746865207a65726f2061646460008201527f7265737300000000000000000000000000000000000000000000000000000000602082015250565b7f4552433732313a20617070726f766520746f2063616c6c657200000000000000600082015250565b7f416464726573733a20756e61626c6520746f2073656e642076616c75652c207260008201527f6563697069656e74206d61792068617665207265766572746564000000000000602082015250565b7f416464726573733a20696e73756666696369656e742062616c616e6365000000600082015250565b7f416464726573733a20696e73756666696369656e742062616c616e636520666f60008201527f722063616c6c0000000000000000000000000000000000000000000000000000602082015250565b7f4552433732313a206f70657261746f7220717565727920666f72206e6f6e657860008201527f697374656e7420746f6b656e0000000000000000000000000000000000000000602082015250565b7f5061796d656e7453706c69747465723a206163636f756e74206973206e6f742060008201527f647565207061796d656e74000000000000000000000000000000000000000000602082015250565b7f4552433732313a20617070726f76652063616c6c6572206973206e6f74206f7760008201527f6e6572206e6f7220617070726f76656420666f7220616c6c0000000000000000602082015250565b7f4e46543a2043616e6e6f7420616464206275726e206164647265737320746f2060008201527f7468652070726573616c652e0000000000000000000000000000000000000000602082015250565b7f4552433732313a2062616c616e636520717565727920666f7220746865207a6560008201527f726f206164647265737300000000000000000000000000000000000000000000602082015250565b7f4552433732313a206f776e657220717565727920666f72206e6f6e657869737460008201527f656e7420746f6b656e0000000000000000000000000000000000000000000000602082015250565b7f4e46543a2045746865722076616c75652073656e74206973206e6f7420636f7260008201527f726563742e000000000000000000000000000000000000000000000000000000602082015250565b7f4552433732313a206d696e7420746f20746865207a65726f2061646472657373600082015250565b7f4552433732313a20617070726f76656420717565727920666f72206e6f6e657860008201527f697374656e7420746f6b656e0000000000000000000000000000000000000000602082015250565b7f4e46543a20506c656173652074727920746f206d696e742061206c6f7765722060008201527f616d6f756e74206f66204e465473000000000000000000000000000000000000602082015250565b7f4f776e61626c653a2063616c6c6572206973206e6f7420746865206f776e6572600082015250565b7f4552433732314d657461646174613a2055524920717565727920666f72206e6f60008201527f6e6578697374656e7420746f6b656e0000000000000000000000000000000000602082015250565b7f4e46543a20507572636861736520776f756c6420657863656564206d6178207360008201527f7570706c79206f66204e4654732e000000000000000000000000000000000000602082015250565b7f4552433732313a20617070726f76616c20746f2063757272656e74206f776e6560008201527f7200000000000000000000000000000000000000000000000000000000000000602082015250565b50565b7f4552433732313a207472616e736665722063616c6c6572206973206e6f74206f60008201527f776e6572206e6f7220617070726f766564000000000000000000000000000000602082015250565b7f416464726573733a2063616c6c20746f206e6f6e2d636f6e7472616374000000600082015250565b7f455243373231456e756d657261626c653a20676c6f62616c20696e646578206f60008201527f7574206f6620626f756e64730000000000000000000000000000000000000000602082015250565b7f5361666545524332303a204552433230206f7065726174696f6e20646964206e60008201527f6f74207375636365656400000000000000000000000000000000000000000000602082015250565b7f5265656e7472616e637947756172643a207265656e7472616e742063616c6c00600082015250565b60038110615d9a57615d996153ec565b5b50565b615da68161517c565b8114615db157600080fd5b50565b615dbd8161518e565b8114615dc857600080fd5b50565b615dd4816151a0565b8114615ddf57600080fd5b50565b615deb816151ac565b8114615df657600080fd5b50565b615e02816151d8565b8114615e0d57600080fd5b50565b615e198161521d565b8114615e2457600080fd5b5056fea26469706673582212200f429f4c75ae7260bdf4141d057b5cc4306e01539c30581f21b207a75a2270df64736f6c63430008040033",
    "linkReferences": {},
    "deployedLinkReferences": {}
}